{"abi":[{"type":"constructor","inputs":[{"name":"_vault","type":"address","internalType":"address"}],"stateMutability":"nonpayable"},{"type":"receive","stateMutability":"payable"},{"type":"function","name":"execute","inputs":[{"name":"targets","type":"address[]","internalType":"address[]"},{"name":"data","type":"bytes[]","internalType":"bytes[]"},{"name":"returnToken","type":"address","internalType":"address"}],"outputs":[],"stateMutability":"nonpayable"},{"type":"function","name":"recoverToken","inputs":[{"name":"token","type":"address","internalType":"address"}],"outputs":[],"stateMutability":"nonpayable"},{"type":"function","name":"vault","inputs":[],"outputs":[{"name":"","type":"address","internalType":"address"}],"stateMutability":"view"}],"bytecode":{"object":"0x60a034607257601f61067d38819003918201601f19168301916001600160401b03831184841017607657808492602094604052833981010312607257516001600160a01b03811681036072576080526040516105f2908161008b823960805181818160540152818160af01526102820152f35b5f80fd5b634e487b7160e01b5f52604160045260245ffdfe6080604052600436101561001a575b3615610018575f80fd5b005b5f3560e01c8063770f86d0146102165780639be65a60146100875763fbfa77cf0361000e5734610083575f366003190112610083576040517f00000000000000000000000000000000000000000000000000000000000000006001600160a01b03168152602090f35b5f80fd5b34610083576020366003190112610083576004356001600160a01b03811690819003610083577f0000000000000000000000000000000000000000000000000000000000000000906100e3336001600160a01b038416146104b1565b8061014057504790816100f257005b5f80809381935af1610102610520565b501561010a57005b60405162461bcd60e51b815260206004820152600e60248201526d149958dbdd995c8819985a5b195960921b6044820152606490fd5b906040516370a0823160e01b8152306004820152602081602481865afa9081156101d9575f916101e4575b508061017357005b60405163a9059cbb60e01b81526001600160a01b03929092166004830152602482015290602090829060449082905f905af180156101d9576101b157005b6100189060203d6020116101d2575b6101ca81836104ea565b81019061055f565b503d6101c0565b6040513d5f823e3d90fd5b90506020813d60201161020e575b816101ff602093836104ea565b8101031261008357518361016b565b3d91506101f2565b346100835760603660031901126100835760043567ffffffffffffffff811161008357610247903690600401610480565b60243567ffffffffffffffff811161008357610267903690600401610480565b91906044359360018060a01b038516809503610083579193917f00000000000000000000000000000000000000000000000000000000000000006102b5336001600160a01b038316146104b1565b36839003601e1901935f5b8781101561038c57600581901b84810135906001600160a01b0382168203610083578883101561037857860135878112156100835786019081359167ffffffffffffffff83116100835760200190823603821361008357825f80949381946040519384928337810182815203925af1610337610520565b5015610345576001016102c0565b60405162461bcd60e51b815260206004820152600b60248201526a10d85b1b0819985a5b195960aa1b6044820152606490fd5b634e487b7160e01b5f52603260045260245ffd5b50806103b45750478061039b57005b5f80808093610018955af16103ae610520565b50610577565b906040516370a0823160e01b8152306004820152602081602481865afa9081156101d9575f9161044e575b50806103e757005b60405163a9059cbb60e01b81526001600160a01b03929092166004830152602482015290602090829060449082905f905af180156101d957610018915f9161042f5750610577565b610448915060203d6020116101d2576101ca81836104ea565b826103ae565b90506020813d602011610478575b81610469602093836104ea565b810103126100835751836103df565b3d915061045c565b9181601f840112156100835782359167ffffffffffffffff8311610083576020808501948460051b01011161008357565b156104b857565b60405162461bcd60e51b815260206004820152600a60248201526913db9b1e481d985d5b1d60b21b6044820152606490fd5b90601f8019910116810190811067ffffffffffffffff82111761050c57604052565b634e487b7160e01b5f52604160045260245ffd5b3d1561055a573d9067ffffffffffffffff821161050c576040519161054f601f8201601f1916602001846104ea565b82523d5f602084013e565b606090565b90816020910312610083575180151581036100835790565b1561057e57565b60405162461bcd60e51b815260206004820152601660248201527514995d1d5c9b881d1c985b9cd9995c8819985a5b195960521b6044820152606490fdfea26469706673582212200d93009398e568bcfc5a0663b129498ae6bc3ec5c89a776bc731e925f3dec74f64736f6c634300081e0033","linkReferences":{}},"methodIdentifiers":{"execute(address[],bytes[],address)":"770f86d0","recoverToken(address)":"9be65a60","vault()":"fbfa77cf"},"storageLayout":{"storage":[],"types":{}},"id":56}