{"abi":[{"type":"constructor","inputs":[],"stateMutability":"nonpayable"},{"type":"receive","stateMutability":"payable"},{"type":"function","name":"NATIVE_CELO","inputs":[],"outputs":[{"name":"","type":"address","internalType":"address"}],"stateMutability":"view"},{"type":"function","name":"UPGRADE_INTERFACE_VERSION","inputs":[],"outputs":[{"name":"","type":"string","internalType":"string"}],"stateMutability":"view"},{"type":"function","name":"balances","inputs":[{"name":"","type":"address","internalType":"address"},{"name":"","type":"address","internalType":"address"}],"outputs":[{"name":"","type":"uint256","internalType":"uint256"}],"stateMutability":"view"},{"type":"function","name":"batchExecuteArbitrage","inputs":[{"name":"users","type":"address[]","internalType":"address[]"},{"name":"tokens","type":"address[]","internalType":"address[]"},{"name":"amounts","type":"uint256[]","internalType":"uint256[]"},{"name":"executor","type":"address","internalType":"address"},{"name":"executorDatas","type":"bytes[]","internalType":"bytes[]"}],"outputs":[],"stateMutability":"nonpayable"},{"type":"function","name":"botConfigs","inputs":[{"name":"","type":"address","internalType":"address"},{"name":"","type":"address","internalType":"address"}],"outputs":[{"name":"minProfitBps","type":"uint256","internalType":"uint256"},{"name":"isActive","type":"bool","internalType":"bool"}],"stateMutability":"view"},{"type":"function","name":"botMetadata","inputs":[{"name":"","type":"address","internalType":"address"},{"name":"","type":"address","internalType":"address"}],"outputs":[{"name":"name","type":"string","internalType":"string"},{"name":"avatarId","type":"uint8","internalType":"uint8"},{"name":"totalTrades","type":"uint256","internalType":"uint256"},{"name":"totalProfit","type":"uint256","internalType":"uint256"}],"stateMutability":"view"},{"type":"function","name":"configureBot","inputs":[{"name":"token","type":"address","internalType":"address"},{"name":"minProfitBps","type":"uint256","internalType":"uint256"},{"name":"isActive","type":"bool","internalType":"bool"},{"name":"name","type":"string","internalType":"string"},{"name":"avatarId","type":"uint8","internalType":"uint8"}],"outputs":[],"stateMutability":"nonpayable"},{"type":"function","name":"deposit","inputs":[{"name":"token","type":"address","internalType":"address"},{"name":"amount","type":"uint256","internalType":"uint256"}],"outputs":[],"stateMutability":"nonpayable"},{"type":"function","name":"depositCELO","inputs":[],"outputs":[],"stateMutability":"payable"},{"type":"function","name":"executeArbitrage","inputs":[{"name":"user","type":"address","internalType":"address"},{"name":"token","type":"address","internalType":"address"},{"name":"amountToUse","type":"uint256","internalType":"uint256"},{"name":"executor","type":"address","internalType":"address"},{"name":"executorData","type":"bytes","internalType":"bytes"}],"outputs":[],"stateMutability":"nonpayable"},{"type":"function","name":"initialize","inputs":[{"name":"initialOwner","type":"address","internalType":"address"}],"outputs":[],"stateMutability":"nonpayable"},{"type":"function","name":"isSolver","inputs":[{"name":"","type":"address","internalType":"address"}],"outputs":[{"name":"","type":"bool","internalType":"bool"}],"stateMutability":"view"},{"type":"function","name":"owner","inputs":[],"outputs":[{"name":"","type":"address","internalType":"address"}],"stateMutability":"view"},{"type":"function","name":"protocolFeeBps","inputs":[],"outputs":[{"name":"","type":"uint256","internalType":"uint256"}],"stateMutability":"view"},{"type":"function","name":"protocolFees","inputs":[{"name":"","type":"address","internalType":"address"}],"outputs":[{"name":"","type":"uint256","internalType":"uint256"}],"stateMutability":"view"},{"type":"function","name":"proxiableUUID","inputs":[],"outputs":[{"name":"","type":"bytes32","internalType":"bytes32"}],"stateMutability":"view"},{"type":"function","name":"renounceOwnership","inputs":[],"outputs":[],"stateMutability":"nonpayable"},{"type":"function","name":"setSolver","inputs":[{"name":"solver","type":"address","internalType":"address"},{"name":"_isSolver","type":"bool","internalType":"bool"}],"outputs":[],"stateMutability":"nonpayable"},{"type":"function","name":"transferOwnership","inputs":[{"name":"newOwner","type":"address","internalType":"address"}],"outputs":[],"stateMutability":"nonpayable"},{"type":"function","name":"upgradeToAndCall","inputs":[{"name":"newImplementation","type":"address","internalType":"address"},{"name":"data","type":"bytes","internalType":"bytes"}],"outputs":[],"stateMutability":"payable"},{"type":"function","name":"withdraw","inputs":[{"name":"token","type":"address","internalType":"address"},{"name":"amount","type":"uint256","internalType":"uint256"}],"outputs":[],"stateMutability":"nonpayable"},{"type":"function","name":"withdrawProtocolFees","inputs":[{"name":"token","type":"address","internalType":"address"}],"outputs":[],"stateMutability":"nonpayable"},{"type":"event","name":"ArbitrageExecuted","inputs":[{"name":"user","type":"address","indexed":true,"internalType":"address"},{"name":"token","type":"address","indexed":true,"internalType":"address"},{"name":"profit","type":"uint256","indexed":false,"internalType":"uint256"}],"anonymous":false},{"type":"event","name":"BotConfigured","inputs":[{"name":"user","type":"address","indexed":true,"internalType":"address"},{"name":"token","type":"address","indexed":true,"internalType":"address"},{"name":"minProfitBps","type":"uint256","indexed":false,"internalType":"uint256"},{"name":"isActive","type":"bool","indexed":false,"internalType":"bool"},{"name":"name","type":"string","indexed":false,"internalType":"string"},{"name":"avatarId","type":"uint8","indexed":false,"internalType":"uint8"}],"anonymous":false},{"type":"event","name":"Deposited","inputs":[{"name":"user","type":"address","indexed":true,"internalType":"address"},{"name":"token","type":"address","indexed":true,"internalType":"address"},{"name":"amount","type":"uint256","indexed":false,"internalType":"uint256"}],"anonymous":false},{"type":"event","name":"Initialized","inputs":[{"name":"version","type":"uint64","indexed":false,"internalType":"uint64"}],"anonymous":false},{"type":"event","name":"OwnershipTransferred","inputs":[{"name":"previousOwner","type":"address","indexed":true,"internalType":"address"},{"name":"newOwner","type":"address","indexed":true,"internalType":"address"}],"anonymous":false},{"type":"event","name":"Upgraded","inputs":[{"name":"implementation","type":"address","indexed":true,"internalType":"address"}],"anonymous":false},{"type":"event","name":"Withdrawn","inputs":[{"name":"user","type":"address","indexed":true,"internalType":"address"},{"name":"token","type":"address","indexed":true,"internalType":"address"},{"name":"amount","type":"uint256","indexed":false,"internalType":"uint256"}],"anonymous":false},{"type":"error","name":"AddressEmptyCode","inputs":[{"name":"target","type":"address","internalType":"address"}]},{"type":"error","name":"ERC1967InvalidImplementation","inputs":[{"name":"implementation","type":"address","internalType":"address"}]},{"type":"error","name":"ERC1967NonPayable","inputs":[]},{"type":"error","name":"FailedCall","inputs":[]},{"type":"error","name":"InvalidInitialization","inputs":[]},{"type":"error","name":"NotInitializing","inputs":[]},{"type":"error","name":"OwnableInvalidOwner","inputs":[{"name":"owner","type":"address","internalType":"address"}]},{"type":"error","name":"OwnableUnauthorizedAccount","inputs":[{"name":"account","type":"address","internalType":"address"}]},{"type":"error","name":"UUPSUnauthorizedCallContext","inputs":[]},{"type":"error","name":"UUPSUnsupportedProxiableUUID","inputs":[{"name":"slot","type":"bytes32","internalType":"bytes32"}]}],"bytecode":{"object":"0x60a080604052346100c257306080525f516020611f4d5f395f51905f525460ff8160401c166100b3576002600160401b03196001600160401b03821601610060575b604051611e8690816100c7823960805181818161142b01526114f60152f35b6001600160401b0319166001600160401b039081175f516020611f4d5f395f51905f525581527fc7f505b2f371ae2175ee4913f4499e1f2633a7b5936321eed1cdaeb6115181d290602090a15f80610041565b63f92ee8a960e01b5f5260045ffd5b5f80fdfe6080806040526004361015610072575b50361561001a575f80fd5b3461002157005b335f525f60205260405f205f805260205260405f20610041348254611bdc565b90555f6040513481527f8752a472e571a816aea92eec8dae9baf628e840f4929fbcc2d155e6233ff68a760203392a3005b5f3560e01c90816302cc250d146119ba575080632d80caa5146118c35780632ecc1b3a146117ab57806335659fb81461178e57806347e7ef24146116725780634f1ef2861461147f57806352d1902d14611419578063715018a6146113b25780638b6f8680146113525780638da5cb5b1461131e578063a587129214611304578063a70f8d9d14610daf578063ad3cb1cc14610d64578063b4f69a7114610878578063b804ec2e146105b7578063c23f001f14610569578063c4d66de8146103f5578063d55d8ecf146103df578063d5add9061461038a578063dcf844a714610352578063f2fde38b146103275763f3fef3a314610170575f61000f565b34610323576040366003190112610323576101896119f3565b60243590335f525f60205260405f2060018060a01b0382165f526020528160405f2054106102e757335f525f60205260405f2060018060a01b0382165f5260205260405f206101d9838254611c88565b90556001600160a01b0316908161026d575f80808084335af16101fa611c46565b501561022f575b6040519081527fd1c19fbcd4551a5edfb66d43d2e337c04837afda3482b42bdf569a8fccdae5fb60203392a3005b60405162461bcd60e51b815260206004820152601660248201527510d15313c81dda5d1a191c985dd85b0819985a5b195960521b6044820152606490fd5b60405163a9059cbb60e01b8152336004820152602481018290526020816044815f875af180156102dc576102a8915f916102ad575b50611b5d565b610201565b6102cf915060203d6020116102d5575b6102c78183611a88565b810190611b45565b5f6102a2565b503d6102bd565b6040513d5f823e3d90fd5b60405162461bcd60e51b8152602060048201526014602482015273496e73756666696369656e742062616c616e636560601b6044820152606490fd5b5f80fd5b34610323576020366003190112610323576103506103436119f3565b61034b611d06565b611c95565b005b34610323576020366003190112610323576001600160a01b036103736119f3565b165f526004602052602060405f2054604051908152f35b34610323576040366003190112610323576103a36119f3565b602435801515810361032357610350916103bb611d06565b60018060a01b03165f52600560205260405f209060ff801983541691151516179055565b5f36600319011261032357610021341515611b9b565b346103235760203660031901126103235761040e6119f3565b5f516020611e315f395f51905f52549060ff8260401c1615916001600160401b03811680159081610561575b6001149081610557575b15908161054e575b5061053f5767ffffffffffffffff1981166001175f516020611e315f395f51905f525582610513575b5061047e611d39565b610486611d39565b61048f81611c95565b6103e86003556001600160a01b03165f908152600560205260409020805460ff191660011790556104bc57005b68ff0000000000000000195f516020611e315f395f51905f5254165f516020611e315f395f51905f52557fc7f505b2f371ae2175ee4913f4499e1f2633a7b5936321eed1cdaeb6115181d2602060405160018152a1005b68ffffffffffffffffff191668010000000000000001175f516020611e315f395f51905f525582610475565b63f92ee8a960e01b5f5260045ffd5b9050158461044c565b303b159150610444565b84915061043a565b34610323576040366003190112610323576105826119f3565b61058a611a09565b6001600160a01b039182165f90815260208181526040808320949093168252928352819020549051908152f35b346103235760a0366003190112610323576105d06119f3565b60243590604435801515809103610323576064356001600160401b03811161032357610600903690600401611b18565b9290916084359060ff82168092036103235761271086116108455761066c60405161062a81611a6d565b878152600160208201848152335f528160205260405f20828060a01b0388165f5260205260405f209251835551151591019060ff801983541691151516179055565b335f52600260205260405f2060018060a01b0384165f5260205260405f20936001600160401b0386116108315785916106a58654611a35565b601f81116107df575b505f95601f841160011461075857600190847f39076dfa439ef537e84d023097cff460d173a33283aebf0f44174691df60060a985f9161074d575b505f19600387901b1c191685831b1781555b018460ff1982541617905560405197885260208801526080604088015281608088015260a08701375f60a08587010152606085015260018060a01b03169260a0813394601f80199101168101030190a3005b90508401358b6106e9565b601f198416815f5260205f20905f5b8181106107c45750907f39076dfa439ef537e84d023097cff460d173a33283aebf0f44174691df60060a988660019493106107ab575b50508185811b0181556106fb565b8501355f19600388901b60f8161c191690558a8061079d565b8986013583556020998a01998b975060019093019201610767565b90919250855f5260205f20601f880160051c81019160208910610827575b90601f89959493920160051c01905b81811061081957506106ae565b5f815588945060010161080c565b90915081906107fd565b634e487b7160e01b5f52604160045260245ffd5b60405162461bcd60e51b815260206004820152600b60248201526a496e76616c69642062707360a81b6044820152606490fd5b346103235760a0366003190112610323576108916119f3565b610899611a09565b604435906108a5611a1f565b926084356001600160401b038111610323576108c5903690600401611b18565b939091335f5260056020526108e060ff60405f205416611be9565b60018060a01b031693845f52600160205260405f2060018060a01b0385165f5260205260405f209360ff60016040519661091988611a6d565b805488520154161580156020870152610d2e57855f525f60205260405f2060018060a01b0382165f526020528260405f205410610ce9576001600160a01b0316958615918215610b81575f918291854797826040519384928337810185815203925af1610984611c46565b5015610b3c575b15610ac9576127106109a46109ab9247955b5190611c75565b0482611bdc565b8210610a8e576109ba91611c88565b6127106109c960035483611c75565b04906109d58282611c88565b91835f525f60205260405f20855f5260205260405f206109f6848254611bdc565b9055845f526004602052610a0f60405f20918254611bdc565b9055825f52600260205260405f20845f5260205260405f20906002820192835460018101809111610a7a576003602094610a6f927f546205492ce144edebd2cc39035c50dbd9aebfec90cbcae9c9ae2914d1e130f7975501918254611bdc565b9055604051908152a3005b634e487b7160e01b5f52601160045260245ffd5b60405162461bcd60e51b8152602060048201526013602482015272125b9cdd59999a58da595b9d081c1c9bd99a5d606a1b6044820152606490fd5b6040516370a0823160e01b815230600482015290602082602481895afa9182156102dc575f92610b06575b506109a4612710916109ab939561099d565b91506020823d602011610b34575b81610b2160209383611a88565b81010312610323579051906109a4610af4565b3d9150610b14565b60405162461bcd60e51b815260206004820152601960248201527f4578656375746f722043454c4f2063616c6c206661696c6564000000000000006044820152606490fd5b90936040516370a0823160e01b81523060048201526020816024818c5afa9081156102dc575f91610cb7575b5060405163a9059cbb60e01b81526001600160a01b0387166004820152602481018690529095906020816044815f8e5af19081156102dc575f91610c98575b5015610c5357825f80949381946040519384928337810182815203925af1610c12611c46565b5061098b5760405162461bcd60e51b8152602060048201526014602482015273115e1958dd5d1bdc8818d85b1b0819985a5b195960621b6044820152606490fd5b60405162461bcd60e51b815260206004820152601b60248201527f5472616e7366657220746f206578656375746f72206661696c656400000000006044820152606490fd5b610cb1915060203d6020116102d5576102c78183611a88565b8a610bec565b90506020813d602011610ce1575b81610cd260209383611a88565b81010312610323575189610bad565b3d9150610cc5565b60405162461bcd60e51b815260206004820152601960248201527f496e73756666696369656e7420757365722062616c616e6365000000000000006044820152606490fd5b60405162461bcd60e51b815260206004820152600e60248201526d426f74206e6f742061637469766560901b6044820152606490fd5b34610323575f36600319011261032357610dab604051610d85604082611a88565b60058152640352e302e360dc1b6020820152604051918291602083526020830190611aa9565b0390f35b346103235760a0366003190112610323576004356001600160401b03811161032357610ddf903690600401611ae8565b906024356001600160401b03811161032357610dff903690600401611ae8565b926044356001600160401b03811161032357610e1f903690600401611ae8565b939094610e2a611a1f565b926084356001600160401b03811161032357610e4a903690600401611ae8565b939091335f526005602052610e6560ff60405f205416611be9565b838114806112fb575b806112f2575b156112bb57929636839003601e190193905f5b828110610e9057005b8089610ec282858f958f81610eb191610eb6610eb1610ebc958f8f90611c22565b611c32565b97611c22565b95611c22565b35898310156112a7578260051b880135898112156103235788016001600160401b038135116103235780353603602082011361032357335f526005602052610f1060ff60405f205416611be9565b60018060a01b0383165f52600160205260405f2060018060a01b0386165f5260205260405f209160ff600160405194610f4886611a6d565b805486520154161580156020850152610d2e576001600160a01b038481165f90815260208181526040808320938a16835292905220548111610ce9578c6001600160a01b038716611166575f80914794846040518281933560208201833735810185815203925af1610fb8611c46565b5015610b3c575b6001600160a01b0386166110eb576127106109a4610fe09247955190611c75565b8210610a8e57610fef91611c88565b612710610ffe60035483611c75565b049361100a8583611c88565b9460018060a01b0384165f525f60205260405f2060018060a01b0383165f5260205260405f2061103b878254611bdc565b905560018060a01b0382165f52600460205261105c60405f20918254611bdc565b905560018060a01b0383165f52600260205260405f2060018060a01b0382165f5260205260405f20600281019182549660018801809811610a7a576110ce600360209460019a7f546205492ce144edebd2cc39035c50dbd9aebfec90cbcae9c9ae2914d1e130f7975501918254611bdc565b905560405193845260a087901b879003908116941692a301610e87565b6040516370a0823160e01b8152306004820152906020826024816001600160a01b038b165afa9182156102dc575f92611131575b506109a461271091610fe0939561099d565b91506020823d821161115e575b8161114b60209383611a88565b81010312610323579051906109a461111f565b3d915061113e565b506040516370a0823160e01b8152306004820152916020836024816001600160a01b038b165afa80156102dc578e935f91611270575b5060405163a9059cbb60e01b81526001600160a01b0390941660048501526024840183905292602081806044810103815f6001600160a01b038d165af19081156102dc575f91611252575b5015610c53575f8e8192826040518281933560208201833735810182815203925af1611211611c46565b50610fbf5760405162461bcd60e51b8152602060048201526014602482015273115e1958dd5d1bdc8818d85b1b0819985a5b195960621b6044820152606490fd5b61126a915060203d81116102d5576102c78183611a88565b5f6111e7565b9350506020833d821161129f575b8161128b60209383611a88565b810103126103235791518d9290602061119c565b3d915061127e565b634e487b7160e01b5f52603260045260245ffd5b60405162461bcd60e51b815260206004820152600f60248201526e098cadccee8d040dad2e6dac2e8c6d608b1b6044820152606490fd5b50848814610e74565b50878414610e6e565b34610323575f3660031901126103235760206040515f8152f35b34610323575f366003190112610323575f516020611df15f395f51905f52546040516001600160a01b039091168152602090f35b346103235760403660031901126103235761136b6119f3565b611373611a09565b9060018060a01b03165f52600160205260405f209060018060a01b03165f526020526040805f2060ff6001825492015416825191825215156020820152f35b34610323575f366003190112610323576113ca611d06565b5f516020611df15f395f51905f5280546001600160a01b031981169091555f906001600160a01b03167f8be0079c531659141344cd1fd0a4f28419497f9722a3daafe3b4186f6b6457e08280a3005b34610323575f366003190112610323577f00000000000000000000000000000000000000000000000000000000000000006001600160a01b031630036114705760206040515f516020611e115f395f51905f528152f35b63703e46dd60e11b5f5260045ffd5b6040366003190112610323576114936119f3565b602435906001600160401b03821161032357366023830112156103235781600401356114be81611acd565b926114cc6040519485611a88565b818452366024838301011161032357815f9260246020930183870137840101526001600160a01b037f000000000000000000000000000000000000000000000000000000000000000016308114908115611650575b506114705761152e611d06565b6040516352d1902d60e01b81526001600160a01b0382169290602081600481875afa5f918161161c575b506115705783634c9c8ce360e01b5f5260045260245ffd5b805f516020611e115f395f51905f5285920361160a5750823b156115f8575f516020611e115f395f51905f5280546001600160a01b031916821790557fbc7cd75a20ee27fd9adebab32041f755214dbc6bffa90cc0225b39da2e5c2d3b5f80a28051156115e05761035091611d64565b5050346115e957005b63b398979f60e01b5f5260045ffd5b634c9c8ce360e01b5f5260045260245ffd5b632a87526960e21b5f5260045260245ffd5b9091506020813d602011611648575b8161163860209383611a88565b8101031261032357519085611558565b3d915061162b565b5f516020611e115f395f51905f52546001600160a01b03161415905083611521565b346103235760403660031901126103235761168b6119f3565b6001600160a01b03166024358115611757576116a8811515611b9b565b6040516323b872dd60e01b8152336004820152306024820152604481018290526020816064815f875af180156102dc576116e8915f916117385750611b5d565b335f525f60205260405f20825f5260205260405f20611708828254611bdc565b90556040519081527f8752a472e571a816aea92eec8dae9baf628e840f4929fbcc2d155e6233ff68a760203392a3005b611751915060203d6020116102d5576102c78183611a88565b846102a2565b60405162461bcd60e51b815260206004820152600f60248201526e557365206465706f73697443454c4f60881b6044820152606490fd5b34610323575f366003190112610323576020600354604051908152f35b34610323576040366003190112610323576117c46119f3565b6117cc611a09565b9060018060a01b03165f52600260205260405f209060018060a01b03165f5260205260405f206040515f91805461180281611a35565b808452906001811690811561189f5750600114611866575b5061182a82611852940383611a88565b60ff600182015416906003600282015491015490604051948594608086526080860190611aa9565b926020850152604084015260608301520390f35b9250805f5260205f205f905b84821061188957508201602001925061182a61181a565b6001816020925483858801015201910190611872565b60ff191660208086019190915291151560051b8401909101935061182a905061181a565b34610323576020366003190112610323576118dc6119f3565b6118e4611d06565b6001600160a01b03165f8181526004602052604090205490811561198b575f8181526004602081815260408084208490555f516020611df15f395f51905f5254905163a9059cbb60e01b81526001600160a01b03909116928101929092526024820194909452929183916044918391905af180156102dc57610350915f9161196c5750611b5d565b611985915060203d6020116102d5576102c78183611a88565b826102a2565b60405162461bcd60e51b81526020600482015260076024820152664e6f206665657360c81b6044820152606490fd5b34610323576020366003190112610323576020906001600160a01b036119de6119f3565b165f526005825260ff60405f20541615158152f35b600435906001600160a01b038216820361032357565b602435906001600160a01b038216820361032357565b606435906001600160a01b038216820361032357565b90600182811c92168015611a63575b6020831014611a4f57565b634e487b7160e01b5f52602260045260245ffd5b91607f1691611a44565b604081019081106001600160401b0382111761083157604052565b90601f801991011681019081106001600160401b0382111761083157604052565b805180835260209291819084018484015e5f828201840152601f01601f1916010190565b6001600160401b03811161083157601f01601f191660200190565b9181601f84011215610323578235916001600160401b038311610323576020808501948460051b01011161032357565b9181601f84011215610323578235916001600160401b038311610323576020838186019501011161032357565b90816020910312610323575180151581036103235790565b15611b6457565b60405162461bcd60e51b815260206004820152600f60248201526e151c985b9cd9995c8819985a5b1959608a1b6044820152606490fd5b15611ba257565b60405162461bcd60e51b81526020600482015260126024820152710416d6f756e74206d757374206265203e20360741b6044820152606490fd5b91908201809211610a7a57565b15611bf057565b60405162461bcd60e51b815260206004820152600a6024820152692737ba1039b7b63b32b960b11b6044820152606490fd5b91908110156112a75760051b0190565b356001600160a01b03811681036103235790565b3d15611c70573d90611c5782611acd565b91611c656040519384611a88565b82523d5f602084013e565b606090565b81810292918115918404141715610a7a57565b91908203918211610a7a57565b6001600160a01b03168015611cf3575f516020611df15f395f51905f5280546001600160a01b0319811683179091556001600160a01b03167f8be0079c531659141344cd1fd0a4f28419497f9722a3daafe3b4186f6b6457e05f80a3565b631e4fbdf760e01b5f525f60045260245ffd5b5f516020611df15f395f51905f52546001600160a01b03163303611d2657565b63118cdaa760e01b5f523360045260245ffd5b60ff5f516020611e315f395f51905f525460401c1615611d5557565b631afcd79f60e31b5f5260045ffd5b905f8091602081519101845af48080611ddd575b15611d985750506040513d81523d5f602083013e60203d82010160405290565b15611dbd57639996b31560e01b5f9081526001600160a01b0391909116600452602490fd5b3d15611dce576040513d5f823e3d90fd5b63d6bda27560e01b5f5260045ffd5b503d151580611d785750813b1515611d7856fe9016d09d72d40fdae2fd8ceac6b6234c7706214fd39c1cd1e609a0528c199300360894a13ba1a3210667c828492db98dca3e2076cc3735a920a3ca505d382bbcf0c57e16840df040f15088dc2f81fe391c3923bec73e23a9662efc9c229c6a00a26469706673582212205ae8b16d8526defd34fa95d417bb939caaca2979dca52f721251180ee623341264736f6c634300081e0033f0c57e16840df040f15088dc2f81fe391c3923bec73e23a9662efc9c229c6a00","linkReferences":{}},"methodIdentifiers":{"NATIVE_CELO()":"a5871292","UPGRADE_INTERFACE_VERSION()":"ad3cb1cc","balances(address,address)":"c23f001f","batchExecuteArbitrage(address[],address[],uint256[],address,bytes[])":"a70f8d9d","botConfigs(address,address)":"8b6f8680","botMetadata(address,address)":"2ecc1b3a","configureBot(address,uint256,bool,string,uint8)":"b804ec2e","deposit(address,uint256)":"47e7ef24","depositCELO()":"d55d8ecf","executeArbitrage(address,address,uint256,address,bytes)":"b4f69a71","initialize(address)":"c4d66de8","isSolver(address)":"02cc250d","owner()":"8da5cb5b","protocolFeeBps()":"35659fb8","protocolFees(address)":"dcf844a7","proxiableUUID()":"52d1902d","renounceOwnership()":"715018a6","setSolver(address,bool)":"d5add906","transferOwnership(address)":"f2fde38b","upgradeToAndCall(address,bytes)":"4f1ef286","withdraw(address,uint256)":"f3fef3a3","withdrawProtocolFees(address)":"2d80caa5"},"storageLayout":{"storage":[{"astId":49622,"contract":"src/ForexSprintVault.sol:ForexSprintVault","label":"balances","offset":0,"slot":"0","type":"t_mapping(t_address,t_mapping(t_address,t_uint256))"},{"astId":49629,"contract":"src/ForexSprintVault.sol:ForexSprintVault","label":"botConfigs","offset":0,"slot":"1","type":"t_mapping(t_address,t_mapping(t_address,t_struct(BotConfig)49610_storage))"},{"astId":49636,"contract":"src/ForexSprintVault.sol:ForexSprintVault","label":"botMetadata","offset":0,"slot":"2","type":"t_mapping(t_address,t_mapping(t_address,t_struct(BotMetadata)49605_storage))"},{"astId":49638,"contract":"src/ForexSprintVault.sol:ForexSprintVault","label":"protocolFeeBps","offset":0,"slot":"3","type":"t_uint256"},{"astId":49642,"contract":"src/ForexSprintVault.sol:ForexSprintVault","label":"protocolFees","offset":0,"slot":"4","type":"t_mapping(t_address,t_uint256)"},{"astId":49646,"contract":"src/ForexSprintVault.sol:ForexSprintVault","label":"isSolver","offset":0,"slot":"5","type":"t_mapping(t_address,t_bool)"}],"types":{"t_address":{"encoding":"inplace","label":"address","numberOfBytes":"20"},"t_bool":{"encoding":"inplace","label":"bool","numberOfBytes":"1"},"t_mapping(t_address,t_bool)":{"encoding":"mapping","key":"t_address","label":"mapping(address => bool)","numberOfBytes":"32","value":"t_bool"},"t_mapping(t_address,t_mapping(t_address,t_struct(BotConfig)49610_storage))":{"encoding":"mapping","key":"t_address","label":"mapping(address => mapping(address => struct ForexSprintVault.BotConfig))","numberOfBytes":"32","value":"t_mapping(t_address,t_struct(BotConfig)49610_storage)"},"t_mapping(t_address,t_mapping(t_address,t_struct(BotMetadata)49605_storage))":{"encoding":"mapping","key":"t_address","label":"mapping(address => mapping(address => struct ForexSprintVault.BotMetadata))","numberOfBytes":"32","value":"t_mapping(t_address,t_struct(BotMetadata)49605_storage)"},"t_mapping(t_address,t_mapping(t_address,t_uint256))":{"encoding":"mapping","key":"t_address","label":"mapping(address => mapping(address => uint256))","numberOfBytes":"32","value":"t_mapping(t_address,t_uint256)"},"t_mapping(t_address,t_struct(BotConfig)49610_storage)":{"encoding":"mapping","key":"t_address","label":"mapping(address => struct ForexSprintVault.BotConfig)","numberOfBytes":"32","value":"t_struct(BotConfig)49610_storage"},"t_mapping(t_address,t_struct(BotMetadata)49605_storage)":{"encoding":"mapping","key":"t_address","label":"mapping(address => struct ForexSprintVault.BotMetadata)","numberOfBytes":"32","value":"t_struct(BotMetadata)49605_storage"},"t_mapping(t_address,t_uint256)":{"encoding":"mapping","key":"t_address","label":"mapping(address => uint256)","numberOfBytes":"32","value":"t_uint256"},"t_string_storage":{"encoding":"bytes","label":"string","numberOfBytes":"32"},"t_struct(BotConfig)49610_storage":{"encoding":"inplace","label":"struct ForexSprintVault.BotConfig","numberOfBytes":"64","members":[{"astId":49607,"contract":"src/ForexSprintVault.sol:ForexSprintVault","label":"minProfitBps","offset":0,"slot":"0","type":"t_uint256"},{"astId":49609,"contract":"src/ForexSprintVault.sol:ForexSprintVault","label":"isActive","offset":0,"slot":"1","type":"t_bool"}]},"t_struct(BotMetadata)49605_storage":{"encoding":"inplace","label":"struct ForexSprintVault.BotMetadata","numberOfBytes":"128","members":[{"astId":49598,"contract":"src/ForexSprintVault.sol:ForexSprintVault","label":"name","offset":0,"slot":"0","type":"t_string_storage"},{"astId":49600,"contract":"src/ForexSprintVault.sol:ForexSprintVault","label":"avatarId","offset":0,"slot":"1","type":"t_uint8"},{"astId":49602,"contract":"src/ForexSprintVault.sol:ForexSprintVault","label":"totalTrades","offset":0,"slot":"2","type":"t_uint256"},{"astId":49604,"contract":"src/ForexSprintVault.sol:ForexSprintVault","label":"totalProfit","offset":0,"slot":"3","type":"t_uint256"}]},"t_uint256":{"encoding":"inplace","label":"uint256","numberOfBytes":"32"},"t_uint8":{"encoding":"inplace","label":"uint8","numberOfBytes":"1"}}},"id":57}